{
  "contractName": "Donut",
  "abi": [
    {
      "constant": true,
      "inputs": [],
      "name": "name",
      "outputs": [
        {
          "name": "",
          "type": "string"
        }
      ],
      "payable": false,
      "stateMutability": "view",
      "type": "function"
    },
    {
      "constant": false,
      "inputs": [
        {
          "name": "spender",
          "type": "address"
        },
        {
          "name": "value",
          "type": "uint256"
        }
      ],
      "name": "approve",
      "outputs": [
        {
          "name": "",
          "type": "bool"
        }
      ],
      "payable": false,
      "stateMutability": "nonpayable",
      "type": "function"
    },
    {
      "constant": true,
      "inputs": [],
      "name": "totalSupply",
      "outputs": [
        {
          "name": "",
          "type": "uint256"
        }
      ],
      "payable": false,
      "stateMutability": "view",
      "type": "function"
    },
    {
      "constant": false,
      "inputs": [
        {
          "name": "from",
          "type": "address"
        },
        {
          "name": "to",
          "type": "address"
        },
        {
          "name": "value",
          "type": "uint256"
        }
      ],
      "name": "transferFrom",
      "outputs": [
        {
          "name": "",
          "type": "bool"
        }
      ],
      "payable": false,
      "stateMutability": "nonpayable",
      "type": "function"
    },
    {
      "constant": true,
      "inputs": [],
      "name": "decimals",
      "outputs": [
        {
          "name": "",
          "type": "uint8"
        }
      ],
      "payable": false,
      "stateMutability": "view",
      "type": "function"
    },
    {
      "constant": false,
      "inputs": [
        {
          "name": "spender",
          "type": "address"
        },
        {
          "name": "addedValue",
          "type": "uint256"
        }
      ],
      "name": "increaseAllowance",
      "outputs": [
        {
          "name": "success",
          "type": "bool"
        }
      ],
      "payable": false,
      "stateMutability": "nonpayable",
      "type": "function"
    },
    {
      "constant": false,
      "inputs": [],
      "name": "unpause",
      "outputs": [],
      "payable": false,
      "stateMutability": "nonpayable",
      "type": "function"
    },
    {
      "constant": false,
      "inputs": [
        {
          "name": "to",
          "type": "address"
        },
        {
          "name": "value",
          "type": "uint256"
        }
      ],
      "name": "mint",
      "outputs": [
        {
          "name": "",
          "type": "bool"
        }
      ],
      "payable": false,
      "stateMutability": "nonpayable",
      "type": "function"
    },
    {
      "constant": true,
      "inputs": [
        {
          "name": "account",
          "type": "address"
        }
      ],
      "name": "isPauser",
      "outputs": [
        {
          "name": "",
          "type": "bool"
        }
      ],
      "payable": false,
      "stateMutability": "view",
      "type": "function"
    },
    {
      "constant": true,
      "inputs": [],
      "name": "paused",
      "outputs": [
        {
          "name": "",
          "type": "bool"
        }
      ],
      "payable": false,
      "stateMutability": "view",
      "type": "function"
    },
    {
      "constant": false,
      "inputs": [],
      "name": "renouncePauser",
      "outputs": [],
      "payable": false,
      "stateMutability": "nonpayable",
      "type": "function"
    },
    {
      "constant": true,
      "inputs": [
        {
          "name": "owner",
          "type": "address"
        }
      ],
      "name": "balanceOf",
      "outputs": [
        {
          "name": "",
          "type": "uint256"
        }
      ],
      "payable": false,
      "stateMutability": "view",
      "type": "function"
    },
    {
      "constant": false,
      "inputs": [
        {
          "name": "account",
          "type": "address"
        }
      ],
      "name": "addPauser",
      "outputs": [],
      "payable": false,
      "stateMutability": "nonpayable",
      "type": "function"
    },
    {
      "constant": false,
      "inputs": [],
      "name": "pause",
      "outputs": [],
      "payable": false,
      "stateMutability": "nonpayable",
      "type": "function"
    },
    {
      "constant": true,
      "inputs": [],
      "name": "symbol",
      "outputs": [
        {
          "name": "",
          "type": "string"
        }
      ],
      "payable": false,
      "stateMutability": "view",
      "type": "function"
    },
    {
      "constant": false,
      "inputs": [
        {
          "name": "account",
          "type": "address"
        }
      ],
      "name": "addMinter",
      "outputs": [],
      "payable": false,
      "stateMutability": "nonpayable",
      "type": "function"
    },
    {
      "constant": false,
      "inputs": [],
      "name": "renounceMinter",
      "outputs": [],
      "payable": false,
      "stateMutability": "nonpayable",
      "type": "function"
    },
    {
      "constant": false,
      "inputs": [
        {
          "name": "spender",
          "type": "address"
        },
        {
          "name": "subtractedValue",
          "type": "uint256"
        }
      ],
      "name": "decreaseAllowance",
      "outputs": [
        {
          "name": "success",
          "type": "bool"
        }
      ],
      "payable": false,
      "stateMutability": "nonpayable",
      "type": "function"
    },
    {
      "constant": false,
      "inputs": [
        {
          "name": "to",
          "type": "address"
        },
        {
          "name": "value",
          "type": "uint256"
        }
      ],
      "name": "transfer",
      "outputs": [
        {
          "name": "",
          "type": "bool"
        }
      ],
      "payable": false,
      "stateMutability": "nonpayable",
      "type": "function"
    },
    {
      "constant": true,
      "inputs": [
        {
          "name": "account",
          "type": "address"
        }
      ],
      "name": "isMinter",
      "outputs": [
        {
          "name": "",
          "type": "bool"
        }
      ],
      "payable": false,
      "stateMutability": "view",
      "type": "function"
    },
    {
      "constant": true,
      "inputs": [
        {
          "name": "owner",
          "type": "address"
        },
        {
          "name": "spender",
          "type": "address"
        }
      ],
      "name": "allowance",
      "outputs": [
        {
          "name": "",
          "type": "uint256"
        }
      ],
      "payable": false,
      "stateMutability": "view",
      "type": "function"
    },
    {
      "inputs": [],
      "payable": false,
      "stateMutability": "nonpayable",
      "type": "constructor"
    },
    {
      "anonymous": false,
      "inputs": [
        {
          "indexed": false,
          "name": "from",
          "type": "address"
        },
        {
          "indexed": true,
          "name": "accountId",
          "type": "address"
        },
        {
          "indexed": false,
          "name": "value",
          "type": "uint256"
        }
      ],
      "name": "Deposit",
      "type": "event"
    },
    {
      "anonymous": false,
      "inputs": [
        {
          "indexed": false,
          "name": "account",
          "type": "address"
        }
      ],
      "name": "Paused",
      "type": "event"
    },
    {
      "anonymous": false,
      "inputs": [
        {
          "indexed": false,
          "name": "account",
          "type": "address"
        }
      ],
      "name": "Unpaused",
      "type": "event"
    },
    {
      "anonymous": false,
      "inputs": [
        {
          "indexed": true,
          "name": "account",
          "type": "address"
        }
      ],
      "name": "PauserAdded",
      "type": "event"
    },
    {
      "anonymous": false,
      "inputs": [
        {
          "indexed": true,
          "name": "account",
          "type": "address"
        }
      ],
      "name": "PauserRemoved",
      "type": "event"
    },
    {
      "anonymous": false,
      "inputs": [
        {
          "indexed": true,
          "name": "account",
          "type": "address"
        }
      ],
      "name": "MinterAdded",
      "type": "event"
    },
    {
      "anonymous": false,
      "inputs": [
        {
          "indexed": true,
          "name": "account",
          "type": "address"
        }
      ],
      "name": "MinterRemoved",
      "type": "event"
    },
    {
      "anonymous": false,
      "inputs": [
        {
          "indexed": true,
          "name": "from",
          "type": "address"
        },
        {
          "indexed": true,
          "name": "to",
          "type": "address"
        },
        {
          "indexed": false,
          "name": "value",
          "type": "uint256"
        }
      ],
      "name": "Transfer",
      "type": "event"
    },
    {
      "anonymous": false,
      "inputs": [
        {
          "indexed": true,
          "name": "owner",
          "type": "address"
        },
        {
          "indexed": true,
          "name": "spender",
          "type": "address"
        },
        {
          "indexed": false,
          "name": "value",
          "type": "uint256"
        }
      ],
      "name": "Approval",
      "type": "event"
    },
    {
      "constant": false,
      "inputs": [
        {
          "name": "accountId",
          "type": "address"
        },
        {
          "name": "value",
          "type": "uint256"
        }
      ],
      "name": "deposit",
      "outputs": [
        {
          "name": "",
          "type": "bool"
        }
      ],
      "payable": false,
      "stateMutability": "nonpayable",
      "type": "function"
    },
    {
      "constant": false,
      "inputs": [
        {
          "name": "accountId",
          "type": "address"
        },
        {
          "name": "from",
          "type": "address"
        },
        {
          "name": "value",
          "type": "uint256"
        }
      ],
      "name": "depositFrom",
      "outputs": [
        {
          "name": "",
          "type": "bool"
        }
      ],
      "payable": false,
      "stateMutability": "nonpayable",
      "type": "function"
    }
  ],
  "bytecode": "0x60806040523480156200001157600080fd5b506040805190810160405280600581526020017f446f6e75740000000000000000000000000000000000000000000000000000008152506040805190810160405280600581526020017f444f4e5554000000000000000000000000000000000000000000000000000000815250601282600390805190602001906200009892919062000235565b508151620000ae90600490602085019062000235565b506005805460ff191660ff9290921691909117905550620000da905033640100000000620000fe810204565b620000ee3364010000000062000150810204565b6008805460ff19169055620002da565b6200011960068264010000000062000ff5620001a282021704565b604051600160a060020a038216907f6ae172837ea30b801fbfcdd4108aa1d5bf8ff775444fd70256b44e6bf3dfc3f690600090a250565b6200016b60078264010000000062000ff5620001a282021704565b604051600160a060020a038216907f6719d08c1888103bea251a4ed56406bd0c3e69723c8a1686e017e7bbe159b6f890600090a250565b600160a060020a0381161515620001b857600080fd5b620001cd8282640100000000620001fd810204565b15620001d857600080fd5b600160a060020a0316600090815260209190915260409020805460ff19166001179055565b6000600160a060020a03821615156200021557600080fd5b50600160a060020a03166000908152602091909152604090205460ff1690565b828054600181600116156101000203166002900490600052602060002090601f016020900481019282601f106200027857805160ff1916838001178555620002a8565b82800160010185558215620002a8579182015b82811115620002a85782518255916020019190600101906200028b565b50620002b6929150620002ba565b5090565b620002d791905b80821115620002b65760008155600101620002c1565b90565b61108f80620002ea6000396000f3006080604052600436106101325763ffffffff7c010000000000000000000000000000000000000000000000000000000060003504166306fdde038114610137578063095ea7b3146101c157806318160ddd146101f957806323b872dd14610220578063313ce5671461024a57806339509351146102755780633f4ba83a1461029957806340c10f19146102b057806346fbf68e146102d457806347e7ef24146102f55780635c975abb1461031957806368a9674d1461032e5780636ef8d66d1461035857806370a082311461036d57806382dc1ec41461038e5780638456cb59146103af57806395d89b41146103c4578063983b2d56146103d957806398650275146103fa578063a457c2d71461040f578063a9059cbb14610433578063aa271e1a14610457578063dd62ed3e14610478575b600080fd5b34801561014357600080fd5b5061014c61049f565b6040805160208082528351818301528351919283929083019185019080838360005b8381101561018657818101518382015260200161016e565b50505050905090810190601f1680156101b35780820380516001836020036101000a031916815260200191505b509250505060405180910390f35b3480156101cd57600080fd5b506101e5600160a060020a0360043516602435610535565b604080519115158252519081900360200190f35b34801561020557600080fd5b5061020e610559565b60408051918252519081900360200190f35b34801561022c57600080fd5b506101e5600160a060020a036004358116906024351660443561055f565b34801561025657600080fd5b5061025f610585565b6040805160ff9092168252519081900360200190f35b34801561028157600080fd5b506101e5600160a060020a036004351660243561058e565b3480156102a557600080fd5b506102ae6105ab565b005b3480156102bc57600080fd5b506101e5600160a060020a036004351660243561060f565b3480156102e057600080fd5b506101e5600160a060020a0360043516610638565b34801561030157600080fd5b506101e5600160a060020a0360043516602435610651565b34801561032557600080fd5b506101e56106dc565b34801561033a57600080fd5b506101e5600160a060020a03600435811690602435166044356106e5565b34801561036457600080fd5b506102ae610774565b34801561037957600080fd5b5061020e600160a060020a036004351661077f565b34801561039a57600080fd5b506102ae600160a060020a036004351661079a565b3480156103bb57600080fd5b506102ae6107ba565b3480156103d057600080fd5b5061014c610820565b3480156103e557600080fd5b506102ae600160a060020a0360043516610881565b34801561040657600080fd5b506102ae61089e565b34801561041b57600080fd5b506101e5600160a060020a03600435166024356108a7565b34801561043f57600080fd5b506101e5600160a060020a03600435166024356108c4565b34801561046357600080fd5b506101e5600160a060020a03600435166108e1565b34801561048457600080fd5b5061020e600160a060020a03600435811690602435166108f4565b60038054604080516020601f600260001961010060018816150201909516949094049384018190048102820181019092528281526060939092909183018282801561052b5780601f106105005761010080835404028352916020019161052b565b820191906000526020600020905b81548152906001019060200180831161050e57829003601f168201915b5050505050905090565b60085460009060ff161561054857600080fd5b610552838361091f565b9392505050565b60025490565b60085460009060ff161561057257600080fd5b61057d84848461098b565b949350505050565b60055460ff1690565b60085460009060ff16156105a157600080fd5b6105528383610a42565b6105b433610638565b15156105bf57600080fd5b60085460ff1615156105d057600080fd5b6008805460ff191690556040805133815290517f5db9ee0a495bf2e6ff9c91a7834c1ba4fdd244a5e8aa4e537bd38aeae4b073aa9181900360200190a1565b600061061a336108e1565b151561062557600080fd5b61062f8383610ae0565b50600192915050565b600061064b60078363ffffffff610b8a16565b92915050565b60085460009060ff161561066457600080fd5b61067c82670de0b6b3a764000063ffffffff610bc116565b1561068657600080fd5b6106903383610be2565b60408051338152602081018490528151600160a060020a038616927f5548c837ab068cf56a2c2479df0882a4922fd203edb7517321831d95078c5f62928290030190a250600192915050565b60085460ff1690565b60085460009060ff16156106f857600080fd5b61071082670de0b6b3a764000063ffffffff610bc116565b1561071a57600080fd5b6107248383610c8b565b60408051600160a060020a038581168252602082018590528251908716927f5548c837ab068cf56a2c2479df0882a4922fd203edb7517321831d95078c5f62928290030190a25060019392505050565b61077d33610d3b565b565b600160a060020a031660009081526020819052604090205490565b6107a333610638565b15156107ae57600080fd5b6107b781610d83565b50565b6107c333610638565b15156107ce57600080fd5b60085460ff16156107de57600080fd5b6008805460ff191660011790556040805133815290517f62e78cea01bee320cd4e420270b5ea74000d11b0c9f74754ebdbfc544b05a2589181900360200190a1565b60048054604080516020601f600260001961010060018816150201909516949094049384018190048102820181019092528281526060939092909183018282801561052b5780601f106105005761010080835404028352916020019161052b565b61088a336108e1565b151561089557600080fd5b6107b781610dcb565b61077d33610e13565b60085460009060ff16156108ba57600080fd5b6105528383610e5b565b60085460009060ff16156108d757600080fd5b6105528383610ea6565b600061064b60068363ffffffff610b8a16565b600160a060020a03918216600090815260016020908152604080832093909416825291909152205490565b6000600160a060020a038316151561093657600080fd5b336000818152600160209081526040808320600160a060020a0388168085529083529281902086905580518681529051929392600080516020611044833981519152929181900390910190a350600192915050565b600160a060020a03831660009081526001602090815260408083203384529091528120546109bf908363ffffffff610eb316565b600160a060020a03851660009081526001602090815260408083203384529091529020556109ee848484610eca565b600160a060020a038416600081815260016020908152604080832033808552908352928190205481519081529051929392600080516020611044833981519152929181900390910190a35060019392505050565b6000600160a060020a0383161515610a5957600080fd5b336000908152600160209081526040808320600160a060020a0387168452909152902054610a8d908363ffffffff610f9716565b336000818152600160209081526040808320600160a060020a038916808552908352928190208590558051948552519193600080516020611044833981519152929081900390910190a350600192915050565b600160a060020a0382161515610af557600080fd5b600254610b08908263ffffffff610f9716565b600255600160a060020a038216600090815260208190526040902054610b34908263ffffffff610f9716565b600160a060020a0383166000818152602081815260408083209490945583518581529351929391927fddf252ad1be2c89b69c2b068fc378daa952ba7f163c4a11628f55a4df523b3ef9281900390910190a35050565b6000600160a060020a0382161515610ba157600080fd5b50600160a060020a03166000908152602091909152604090205460ff1690565b6000811515610bcf57600080fd5b8183811515610bda57fe5b069392505050565b600160a060020a0382161515610bf757600080fd5b600254610c0a908263ffffffff610eb316565b600255600160a060020a038216600090815260208190526040902054610c36908263ffffffff610eb316565b600160a060020a038316600081815260208181526040808320949094558351858152935191937fddf252ad1be2c89b69c2b068fc378daa952ba7f163c4a11628f55a4df523b3ef929081900390910190a35050565b600160a060020a0382166000908152600160209081526040808320338452909152902054610cbf908263ffffffff610eb316565b600160a060020a0383166000908152600160209081526040808320338452909152902055610ced8282610be2565b600160a060020a038216600081815260016020908152604080832033808552908352928190205481519081529051929392600080516020611044833981519152929181900390910190a35050565b610d4c60078263ffffffff610fa916565b604051600160a060020a038216907fcd265ebaf09df2871cc7bd4133404a235ba12eff2041bb89d9c714a2621c7c7e90600090a250565b610d9460078263ffffffff610ff516565b604051600160a060020a038216907f6719d08c1888103bea251a4ed56406bd0c3e69723c8a1686e017e7bbe159b6f890600090a250565b610ddc60068263ffffffff610ff516565b604051600160a060020a038216907f6ae172837ea30b801fbfcdd4108aa1d5bf8ff775444fd70256b44e6bf3dfc3f690600090a250565b610e2460068263ffffffff610fa916565b604051600160a060020a038216907fe94479a9f7e1952cc78f2d6baab678adc1b772d936c6583def489e524cb6669290600090a250565b6000600160a060020a0383161515610e7257600080fd5b336000908152600160209081526040808320600160a060020a0387168452909152902054610a8d908363ffffffff610eb316565b600061062f338484610eca565b60008083831115610ec357600080fd5b5050900390565b600160a060020a0382161515610edf57600080fd5b600160a060020a038316600090815260208190526040902054610f08908263ffffffff610eb316565b600160a060020a038085166000908152602081905260408082209390935590841681522054610f3d908263ffffffff610f9716565b600160a060020a038084166000818152602081815260409182902094909455805185815290519193928716927fddf252ad1be2c89b69c2b068fc378daa952ba7f163c4a11628f55a4df523b3ef92918290030190a3505050565b60008282018381101561055257600080fd5b600160a060020a0381161515610fbe57600080fd5b610fc88282610b8a565b1515610fd357600080fd5b600160a060020a0316600090815260209190915260409020805460ff19169055565b600160a060020a038116151561100a57600080fd5b6110148282610b8a565b1561101e57600080fd5b600160a060020a0316600090815260209190915260409020805460ff1916600117905556008c5be1e5ebec7d5bd14f71427d1e84f3dd0314c0f7b2291e5b200ac8c7c3b925a165627a7a72305820b4018faf6110f09858f92da42dff331fa4293948891c75fcebf60f3f84b5019a0029",
  "source": "pragma solidity 0.4.25;\n\nimport \"openzeppelin-solidity/contracts/math/SafeMath.sol\";\nimport 'openzeppelin-solidity/contracts/token/ERC20/ERC20.sol';\nimport 'openzeppelin-solidity/contracts/token/ERC20/ERC20Detailed.sol';\nimport 'openzeppelin-solidity/contracts/token/ERC20/ERC20Mintable.sol';\nimport 'openzeppelin-solidity/contracts/token/ERC20/ERC20Pausable.sol';\n\ncontract Donut is ERC20, ERC20Detailed, ERC20Mintable, ERC20Pausable {\n  using SafeMath for uint256;\n\n  event Deposit(\n      address from,\n      address indexed accountId,\n      uint256 value);\n\n  constructor()\n      ERC20Mintable()\n      ERC20Pausable()\n      ERC20Detailed('Donut', 'DONUT', 18)\n      ERC20()\n      public {}\n\n  function deposit(\n      address accountId,\n      uint256 value)\n      public\n      whenNotPaused\n      returns (bool) {\n    // Require deposits to be in whole number amounts.\n    require(value.mod(1e18) == 0);\n    _burn(msg.sender, value);\n    emit Deposit(msg.sender, accountId, value);\n    return true;\n  }\n\n  function depositFrom(\n      address accountId,\n      address from,\n      uint256 value)\n      public\n      whenNotPaused\n      returns (bool) {\n    // Require deposits to be in whole number amounts.\n    require(value.mod(1e18) == 0);\n    _burnFrom(from, value);\n    emit Deposit(from, accountId, value);\n    return true;\n  }\n}\n",
  "sourcePath": "/tmp/veil/code/pillsbury/token/contracts/Donut.sol",
  "compiler": {
    "name": "solc",
    "version": "0.4.25+commit.59dbf8f1.Emscripten.clang"
  },
  "schemaVersion": "2.0.2",
  "updatedAt": "2019-03-01T16:33:47.686Z"
}